{
  "contractName": "Governance",
  "abi": [
    {
      "inputs": [],
      "stateMutability": "nonpayable",
      "type": "constructor"
    },
    {
      "inputs": [],
      "name": "lottery",
      "outputs": [
        {
          "internalType": "address",
          "name": "",
          "type": "address"
        }
      ],
      "stateMutability": "view",
      "type": "function"
    },
    {
      "inputs": [],
      "name": "one_time",
      "outputs": [
        {
          "internalType": "uint256",
          "name": "",
          "type": "uint256"
        }
      ],
      "stateMutability": "view",
      "type": "function"
    },
    {
      "inputs": [],
      "name": "randomness",
      "outputs": [
        {
          "internalType": "address",
          "name": "",
          "type": "address"
        }
      ],
      "stateMutability": "view",
      "type": "function"
    },
    {
      "inputs": [
        {
          "internalType": "address",
          "name": "_lottery",
          "type": "address"
        },
        {
          "internalType": "address",
          "name": "_randomness",
          "type": "address"
        }
      ],
      "name": "init",
      "outputs": [],
      "stateMutability": "nonpayable",
      "type": "function"
    }
  ],
  "bytecode": "0x608060405234801561001057600080fd5b506001600081905550610442806100286000396000f3fe608060405234801561001057600080fd5b506004361061004c5760003560e01c80633601318914610051578063437f17601461009b578063ba13a572146100b9578063f09a401614610103575b600080fd5b610059610167565b604051808273ffffffffffffffffffffffffffffffffffffffff1673ffffffffffffffffffffffffffffffffffffffff16815260200191505060405180910390f35b6100a361018d565b6040518082815260200191505060405180910390f35b6100c1610193565b604051808273ffffffffffffffffffffffffffffffffffffffff1673ffffffffffffffffffffffffffffffffffffffff16815260200191505060405180910390f35b6101656004803603604081101561011957600080fd5b81019080803573ffffffffffffffffffffffffffffffffffffffff169060200190929190803573ffffffffffffffffffffffffffffffffffffffff1690602001909291905050506101b9565b005b600260009054906101000a900473ffffffffffffffffffffffffffffffffffffffff1681565b60005481565b600160009054906101000a900473ffffffffffffffffffffffffffffffffffffffff1681565b600073ffffffffffffffffffffffffffffffffffffffff168173ffffffffffffffffffffffffffffffffffffffff16141561023f576040517f08c379a00000000000000000000000000000000000000000000000000000000081526004018080602001828103825260218152602001806103ec6021913960400191505060405180910390fd5b600073ffffffffffffffffffffffffffffffffffffffff168273ffffffffffffffffffffffffffffffffffffffff1614156102e2576040517f08c379a00000000000000000000000000000000000000000000000000000000081526004018080602001828103825260188152602001807f6e6f2d6c6f74746572792d616464726573732d676976656e000000000000000081525060200191505060405180910390fd5b6000805411610359576040517f08c379a00000000000000000000000000000000000000000000000000000000081526004018080602001828103825260178152602001807f63616e2d6f6e6c792d62652d63616c6c65642d6f6e636500000000000000000081525060200191505060405180910390fd5b60016000540360008190555080600260006101000a81548173ffffffffffffffffffffffffffffffffffffffff021916908373ffffffffffffffffffffffffffffffffffffffff16021790555081600160006101000a81548173ffffffffffffffffffffffffffffffffffffffff021916908373ffffffffffffffffffffffffffffffffffffffff160217905550505056fe676f7665726e616e63652f6e6f2d72616e646f6d6e657373732d61646472657373a26469706673582212204d1978b3a809b6ce746ff800b67acee158fd30a26391eae0038d52669e27e64964736f6c63430006060033",
  "immutableReferences": {},
  "source": "pragma solidity ^0.6.6;\n\ncontract Governance {\n    uint256 public one_time;\n    address public lottery;\n    address public randomness;\n    constructor() public {\n        one_time = 1;\n    }\n    function init(address _lottery, address _randomness) public {\n        require(_randomness != address(0), \"governance/no-randomnesss-address\");\n        require(_lottery != address(0), \"no-lottery-address-given\");\n        require(one_time > 0, \"can-only-be-called-once\");\n        one_time = one_time - 1;\n        randomness = _randomness;\n        lottery = _lottery;\n    }\n}\n",
  "sourcePath": "/home/osboxes/BoskeDAO/BOSKE-raffle/contracts/Governance.sol",
  "compiler": {
    "name": "solc",
    "version": "0.6.6+commit.6c089d02.Emscripten.clang"
  },
  "schemaVersion": "3.3.4",
  "updatedAt": "2021-03-29T18:54:03.411Z",
  "devdoc": {
    "methods": {}
  },
  "userdoc": {
    "methods": {}
  }
}