{
  "contractName": "Lottery",
  "abi": [
    {
      "inputs": [
        {
          "internalType": "address",
          "name": "_governance",
          "type": "address"
        }
      ],
      "stateMutability": "nonpayable",
      "type": "constructor"
    },
    {
      "anonymous": false,
      "inputs": [
        {
          "indexed": true,
          "internalType": "bytes32",
          "name": "id",
          "type": "bytes32"
        }
      ],
      "name": "ChainlinkCancelled",
      "type": "event"
    },
    {
      "anonymous": false,
      "inputs": [
        {
          "indexed": true,
          "internalType": "bytes32",
          "name": "id",
          "type": "bytes32"
        }
      ],
      "name": "ChainlinkFulfilled",
      "type": "event"
    },
    {
      "anonymous": false,
      "inputs": [
        {
          "indexed": true,
          "internalType": "bytes32",
          "name": "id",
          "type": "bytes32"
        }
      ],
      "name": "ChainlinkRequested",
      "type": "event"
    },
    {
      "inputs": [],
      "name": "MINIMUM",
      "outputs": [
        {
          "internalType": "uint256",
          "name": "",
          "type": "uint256"
        }
      ],
      "stateMutability": "view",
      "type": "function"
    },
    {
      "inputs": [],
      "name": "ORACLE_PAYMENT",
      "outputs": [
        {
          "internalType": "uint256",
          "name": "",
          "type": "uint256"
        }
      ],
      "stateMutability": "view",
      "type": "function"
    },
    {
      "inputs": [],
      "name": "governance",
      "outputs": [
        {
          "internalType": "contract governance_interface",
          "name": "",
          "type": "address"
        }
      ],
      "stateMutability": "view",
      "type": "function"
    },
    {
      "inputs": [],
      "name": "lotteryId",
      "outputs": [
        {
          "internalType": "uint256",
          "name": "",
          "type": "uint256"
        }
      ],
      "stateMutability": "view",
      "type": "function"
    },
    {
      "inputs": [],
      "name": "lottery_state",
      "outputs": [
        {
          "internalType": "enum Lottery.LOTTERY_STATE",
          "name": "",
          "type": "uint8"
        }
      ],
      "stateMutability": "view",
      "type": "function"
    },
    {
      "inputs": [
        {
          "internalType": "uint256",
          "name": "",
          "type": "uint256"
        }
      ],
      "name": "players",
      "outputs": [
        {
          "internalType": "address payable",
          "name": "",
          "type": "address"
        }
      ],
      "stateMutability": "view",
      "type": "function"
    },
    {
      "inputs": [],
      "name": "enter",
      "outputs": [],
      "stateMutability": "payable",
      "type": "function"
    },
    {
      "inputs": [
        {
          "internalType": "uint256",
          "name": "duration",
          "type": "uint256"
        }
      ],
      "name": "start_new_lottery",
      "outputs": [],
      "stateMutability": "nonpayable",
      "type": "function"
    },
    {
      "inputs": [
        {
          "internalType": "bytes32",
          "name": "_requestId",
          "type": "bytes32"
        }
      ],
      "name": "fulfill_alarm",
      "outputs": [],
      "stateMutability": "nonpayable",
      "type": "function"
    },
    {
      "inputs": [
        {
          "internalType": "uint256",
          "name": "randomness",
          "type": "uint256"
        }
      ],
      "name": "fulfill_random",
      "outputs": [],
      "stateMutability": "nonpayable",
      "type": "function"
    },
    {
      "inputs": [],
      "name": "get_players",
      "outputs": [
        {
          "internalType": "address payable[]",
          "name": "",
          "type": "address[]"
        }
      ],
      "stateMutability": "view",
      "type": "function"
    },
    {
      "inputs": [],
      "name": "get_pot",
      "outputs": [
        {
          "internalType": "uint256",
          "name": "",
          "type": "uint256"
        }
      ],
      "stateMutability": "view",
      "type": "function"
    }
  ],
  "bytecode": "0x6080604052600160045566038d7ea4c68000600a5567016345785d8a0000600b55737afe1118ea78c1eae84ca8fee5c65bc76ccf879e600c60006101000a81548173ffffffffffffffffffffffffffffffffffffffff021916908373ffffffffffffffffffffffffffffffffffffffff1602179055507f3466666634376333393832623462616262613661376464363934633962323034600d55348015620000a657600080fd5b5060405162001a1838038062001a1883398181016040526020811015620000cc57600080fd5b8101908080519060200190929190505050620000ed6200016260201b60201c565b60016007819055506001600660006101000a81548160ff021916908360028111156200011557fe5b021790555080600960006101000a81548173ffffffffffffffffffffffffffffffffffffffff021916908373ffffffffffffffffffffffffffffffffffffffff1602179055505062000250565b6200020a73c89bd4e1632d3a43cb03aaad5262cbe4038bc57173ffffffffffffffffffffffffffffffffffffffff166338cc48316040518163ffffffff1660e01b815260040160206040518083038186803b158015620001c157600080fd5b505afa158015620001d6573d6000803e3d6000fd5b505050506040513d6020811015620001ed57600080fd5b81019080805190602001909291905050506200020c60201b60201c565b565b80600260006101000a81548173ffffffffffffffffffffffffffffffffffffffff021916908373ffffffffffffffffffffffffffffffffffffffff16021790555050565b6117b880620002606000396000f3fe6080604052600436106100a75760003560e01c8063c251ebf211610064578063c251ebf2146101f8578063d0b82d7714610233578063e580f47b1461026e578063e7e4552c14610299578063e97dcb6214610305578063f71d96cb1461030f576100a7565b806322bb34d8146100ac5780635aa6e675146100e757806362c0553f1461013e57806381447999146101695780639c484b5c146101a2578063a1fd4b34146101cd575b600080fd5b3480156100b857600080fd5b506100e5600480360360208110156100cf57600080fd5b810190808035906020019092919050505061038a565b005b3480156100f357600080fd5b506100fc61057c565b604051808273ffffffffffffffffffffffffffffffffffffffff1673ffffffffffffffffffffffffffffffffffffffff16815260200191505060405180910390f35b34801561014a57600080fd5b506101536105a2565b6040518082815260200191505060405180910390f35b34801561017557600080fd5b5061017e6105aa565b6040518082600281111561018e57fe5b60ff16815260200191505060405180910390f35b3480156101ae57600080fd5b506101b76105bd565b6040518082815260200191505060405180910390f35b3480156101d957600080fd5b506101e26105c3565b6040518082815260200191505060405180910390f35b34801561020457600080fd5b506102316004803603602081101561021b57600080fd5b81019080803590602001909291905050506105c9565b005b34801561023f57600080fd5b5061026c6004803603602081101561025657600080fd5b81019080803590602001909291905050506107f0565b005b34801561027a57600080fd5b5061028361094d565b6040518082815260200191505060405180910390f35b3480156102a557600080fd5b506102ae610953565b6040518080602001828103825283818151815260200191508051906020019060200280838360005b838110156102f15780820151818401526020810190506102d6565b505050509050019250505060405180910390f35b61030d6109e1565b005b34801561031b57600080fd5b506103486004803603602081101561033257600080fd5b8101908080359060200190929190505050610a80565b604051808273ffffffffffffffffffffffffffffffffffffffff1673ffffffffffffffffffffffffffffffffffffffff16815260200191505060405180910390f35b806005600082815260200190815260200160002060009054906101000a900473ffffffffffffffffffffffffffffffffffffffff1673ffffffffffffffffffffffffffffffffffffffff163373ffffffffffffffffffffffffffffffffffffffff1614610442576040517f08c379a000000000000000000000000000000000000000000000000000000000815260040180806020018281038252602881526020018061175b6028913960400191505060405180910390fd5b6005600082815260200190815260200160002060006101000a81549073ffffffffffffffffffffffffffffffffffffffff0219169055807f7cc135e0cebb02c3480ae5d74d377283180a2601f8f644edf7987b009316c63a60405160405180910390a2600060028111156104b257fe5b600660009054906101000a900460ff1660028111156104cd57fe5b14610540576040517f08c379a00000000000000000000000000000000000000000000000000000000081526004018080602001828103825260208152602001807f546865206c6f7474657279206861736e2774206576656e20737461727465642181525060200191505060405180910390fd5b6002600660006101000a81548160ff0219169083600281111561055f57fe5b0217905550600160075401600781905550610578610abc565b5050565b600960009054906101000a900473ffffffffffffffffffffffffffffffffffffffff1681565b600047905090565b600660009054906101000a900460ff1681565b600a5481565b600b5481565b6002808111156105d557fe5b600660009054906101000a900460ff1660028111156105f057fe5b14610663576040517f08c379a000000000000000000000000000000000000000000000000000000000815260040180806020018281038252601d8152602001807f596f75206172656e27742061742074686174207374616765207965742100000081525060200191505060405180910390fd5b600081116106d9576040517f08c379a00000000000000000000000000000000000000000000000000000000081526004018080602001828103825260108152602001807f72616e646f6d2d6e6f742d666f756e640000000000000000000000000000000081525060200191505060405180910390fd5b600060088054905082816106e957fe5b069050600881815481106106f957fe5b9060005260206000200160009054906101000a900473ffffffffffffffffffffffffffffffffffffffff1673ffffffffffffffffffffffffffffffffffffffff166108fc479081150290604051600060405180830381858888f19350505050158015610769573d6000803e3d6000fd5b50600067ffffffffffffffff8111801561078257600080fd5b506040519080825280602002602001820160405280156107b15781602001602082028036833780820191505090505b50600890805190602001906107c79291906115e3565b506001600660006101000a81548160ff021916908360028111156107e757fe5b02179055505050565b600160028111156107fd57fe5b600660009054906101000a900460ff16600281111561081857fe5b1461088b576040517f08c379a000000000000000000000000000000000000000000000000000000000815260040180806020018281038252601d8152602001807f63616e27742073746172742061206e6577206c6f74746572792079657400000081525060200191505060405180910390fd5b6000600660006101000a81548160ff021916908360028111156108aa57fe5b02179055506108b761166d565b6108cb600d54306322bb34d860e01b610c71565b90506109196040518060400160405280600581526020017f756e74696c00000000000000000000000000000000000000000000000000000081525083420183610ca29092919063ffffffff16565b610948600c60009054906101000a900473ffffffffffffffffffffffffffffffffffffffff1682600b54610cd5565b505050565b60075481565b606060088054806020026020016040519081016040528092919081815260200182805480156109d757602002820191906000526020600020905b8160009054906101000a900473ffffffffffffffffffffffffffffffffffffffff1673ffffffffffffffffffffffffffffffffffffffff168152602001906001019080831161098d575b5050505050905090565b600a5434146109ec57fe5b600060028111156109f957fe5b600660009054906101000a900460ff166002811115610a1457fe5b14610a1b57fe5b6008339080600181540180825580915050600190039060005260206000200160009091909190916101000a81548173ffffffffffffffffffffffffffffffffffffffff021916908373ffffffffffffffffffffffffffffffffffffffff160217905550565b60088181548110610a8d57fe5b906000526020600020016000915054906101000a900473ffffffffffffffffffffffffffffffffffffffff1681565b600280811115610ac857fe5b600660009054906101000a900460ff166002811115610ae357fe5b14610b56576040517f08c379a000000000000000000000000000000000000000000000000000000000815260040180806020018281038252601d8152602001807f596f75206172656e27742061742074686174207374616765207965742100000081525060200191505060405180910390fd5b600960009054906101000a900473ffffffffffffffffffffffffffffffffffffffff1673ffffffffffffffffffffffffffffffffffffffff1663360131896040518163ffffffff1660e01b815260040160206040518083038186803b158015610bbe57600080fd5b505afa158015610bd2573d6000803e3d6000fd5b505050506040513d6020811015610be857600080fd5b810190808051906020019092919050505073ffffffffffffffffffffffffffffffffffffffff1663655b08eb6007546007546040518363ffffffff1660e01b81526004018083815260200182815260200192505050600060405180830381600087803b158015610c5757600080fd5b505af1158015610c6b573d6000803e3d6000fd5b50505050565b610c7961166d565b610c8161166d565b610c9885858584610f8d909392919063ffffffff16565b9150509392505050565b610cb982846080015161103d90919063ffffffff16565b610cd081846080015161106290919063ffffffff16565b505050565b600030600454604051602001808373ffffffffffffffffffffffffffffffffffffffff1673ffffffffffffffffffffffffffffffffffffffff1660601b815260140182815260200192505050604051602081830303815290604052805190602001209050600454836060018181525050836005600083815260200190815260200160002060006101000a81548173ffffffffffffffffffffffffffffffffffffffff021916908373ffffffffffffffffffffffffffffffffffffffff160217905550807fb5e6e01e79f91267dc17b4e6314d5d4d03593d2ceee0fbb452b750bd70ea5af960405160405180910390a2600260009054906101000a900473ffffffffffffffffffffffffffffffffffffffff1673ffffffffffffffffffffffffffffffffffffffff16634000aea08584610e0d87611072565b6040518463ffffffff1660e01b8152600401808473ffffffffffffffffffffffffffffffffffffffff1673ffffffffffffffffffffffffffffffffffffffff16815260200183815260200180602001828103825283818151815260200191508051906020019080838360005b83811015610e94578082015181840152602081019050610e79565b50505050905090810190601f168015610ec15780820380516001836020036101000a031916815260200191505b50945050505050602060405180830381600087803b158015610ee257600080fd5b505af1158015610ef6573d6000803e3d6000fd5b505050506040513d6020811015610f0c57600080fd5b8101908080519060200190929190505050610f72576040517f08c379a00000000000000000000000000000000000000000000000000000000081526004018080602001828103825260238152602001806117386023913960400191505060405180910390fd5b60016004600082825401925050819055508090509392505050565b610f9561166d565b610fa5856080015161010061123e565b508385600001818152505082856020019073ffffffffffffffffffffffffffffffffffffffff16908173ffffffffffffffffffffffffffffffffffffffff16815250508185604001907bffffffffffffffffffffffffffffffffffffffffffffffffffffffff191690817bffffffffffffffffffffffffffffffffffffffffffffffffffffffff191681525050849050949350505050565b61104a8260038351611292565b61105d81836113d790919063ffffffff16565b505050565b61106e82600083611292565b5050565b6060634042994660e01b60008084600001518560200151866040015187606001516001896080015160000151604051602401808973ffffffffffffffffffffffffffffffffffffffff1673ffffffffffffffffffffffffffffffffffffffff1681526020018881526020018781526020018673ffffffffffffffffffffffffffffffffffffffff1673ffffffffffffffffffffffffffffffffffffffff168152602001857bffffffffffffffffffffffffffffffffffffffffffffffffffffffff19167bffffffffffffffffffffffffffffffffffffffffffffffffffffffff1916815260200184815260200183815260200180602001828103825283818151815260200191508051906020019080838360005b838110156111a1578082015181840152602081019050611186565b50505050905090810190601f1680156111ce5780820380516001836020036101000a031916815260200191505b509950505050505050505050604051602081830303815290604052907bffffffffffffffffffffffffffffffffffffffffffffffffffffffff19166020820180517bffffffffffffffffffffffffffffffffffffffffffffffffffffffff83818316178352505050509050919050565b6112466116da565b60006020838161125257fe5b061461126b576020828161126257fe5b06602003820191505b81836020018181525050604051808452600081528281016020016040525082905092915050565b601781116112bf576112b98160058460ff16901b60ff1617846113f990919063ffffffff16565b506113d2565b60ff8111611301576112e4601860058460ff16901b17846113f990919063ffffffff16565b506112fb816001856114199092919063ffffffff16565b506113d1565b61ffff811161134457611327601960058460ff16901b17846113f990919063ffffffff16565b5061133e816002856114199092919063ffffffff16565b506113d0565b63ffffffff81116113895761136c601a60058460ff16901b17846113f990919063ffffffff16565b50611383816004856114199092919063ffffffff16565b506113cf565b67ffffffffffffffff81116113ce576113b5601b60058460ff16901b17846113f990919063ffffffff16565b506113cc816008856114199092919063ffffffff16565b505b5b5b5b5b505050565b6113df6116da565b6113f18384600001515184855161143b565b905092915050565b6114016116da565b61141183846000015151846114f4565b905092915050565b6114216116da565b611432848560000151518585611542565b90509392505050565b6114436116da565b825182111561145157600080fd5b8460200151828501111561147c5761147b85600261147588602001518887016115a3565b026115bf565b5b60008086518051876020830101935080888701111561149b5787860182525b60208701925050505b602084106114c757805182526020820191506020810190506020840393506114a4565b60006001856020036101000a03905080198251168184511681811785525050879350505050949350505050565b6114fc6116da565b83602001518310611519576115188460028660200151026115bf565b5b8351805160208583010184815381861415611535576001820183525b5050508390509392505050565b61154a6116da565b8460200151848301111561156857611567856002868501026115bf565b5b60006001836101000a03905085518386820101858319825116178152815185880111156115955784870182525b505085915050949350505050565b6000818311156115b5578290506115b9565b8190505b92915050565b6060826000015190506115d2838361123e565b506115dd83826113d7565b50505050565b82805482825590600052602060002090810192821561165c579160200282015b8281111561165b5782518260006101000a81548173ffffffffffffffffffffffffffffffffffffffff021916908373ffffffffffffffffffffffffffffffffffffffff16021790555091602001919060010190611603565b5b50905061166991906116f4565b5090565b6040518060a0016040528060008019168152602001600073ffffffffffffffffffffffffffffffffffffffff16815260200160007bffffffffffffffffffffffffffffffffffffffffffffffffffffffff19168152602001600081526020016116d46116da565b81525090565b604051806040016040528060608152602001600081525090565b61173491905b8082111561173057600081816101000a81549073ffffffffffffffffffffffffffffffffffffffff0219169055506001016116fa565b5090565b9056fe756e61626c6520746f207472616e73666572416e6443616c6c20746f206f7261636c65536f75726365206d75737420626520746865206f7261636c65206f66207468652072657175657374a26469706673582212208bfd03cb8ba134e717d6dbc4272b199ee2f0f013cad618970ffffb73cd93f56164736f6c63430006060033",
  "immutableReferences": {},
  "source": "pragma solidity ^0.6.6;\nimport \"@chainlink/contracts/src/v0.6/ChainlinkClient.sol\";\nimport {randomness_interface} from \"./interfaces/randomness_interface.sol\";\nimport {governance_interface} from \"./interfaces/governance_interface.sol\";\n\ncontract Lottery is ChainlinkClient {\n    enum LOTTERY_STATE { OPEN, CLOSED, CALCULATING_WINNER }\n    LOTTERY_STATE public lottery_state;\n    uint256 public lotteryId;\n    address payable[] public players;\n    governance_interface public governance;\n    // .01 ETH\n    uint256 public MINIMUM = 1000000000000000;\n    // 0.1 LINK\n    uint256 public ORACLE_PAYMENT = 100000000000000000;\n    // Alarm stuff\n    address CHAINLINK_ALARM_ORACLE = 0x7AFe1118Ea78C1eae84ca8feE5C65Bc76CcF879e;\n    bytes32 CHAINLINK_ALARM_JOB_ID = \"4fff47c3982b4babba6a7dd694c9b204\";\n    \n    constructor(address _governance) public\n    {\n        setPublicChainlinkToken();\n        lotteryId = 1;\n        lottery_state = LOTTERY_STATE.CLOSED;\n        governance = governance_interface(_governance);\n    }\n\n    function enter() public payable {\n        assert(msg.value == MINIMUM);\n        assert(lottery_state == LOTTERY_STATE.OPEN);\n        players.push(msg.sender);\n    } \n    \n  function start_new_lottery(uint256 duration) public {\n    require(lottery_state == LOTTERY_STATE.CLOSED, \"can't start a new lottery yet\");\n    lottery_state = LOTTERY_STATE.OPEN;\n    Chainlink.Request memory req = buildChainlinkRequest(CHAINLINK_ALARM_JOB_ID, address(this), this.fulfill_alarm.selector);\n    req.addUint(\"until\", now + duration);\n    sendChainlinkRequestTo(CHAINLINK_ALARM_ORACLE, req, ORACLE_PAYMENT);\n  }\n  \n  function fulfill_alarm(bytes32 _requestId)\n    public\n    recordChainlinkFulfillment(_requestId)\n      {\n        require(lottery_state == LOTTERY_STATE.OPEN, \"The lottery hasn't even started!\");\n        // add a require here so that only the oracle contract can\n        // call the fulfill alarm method\n        lottery_state = LOTTERY_STATE.CALCULATING_WINNER;\n        lotteryId = lotteryId + 1;\n        pickWinner();\n    }\n\n\n    function pickWinner() private {\n        require(lottery_state == LOTTERY_STATE.CALCULATING_WINNER, \"You aren't at that stage yet!\");\n        randomness_interface(governance.randomness()).getRandom(lotteryId, lotteryId);\n        //this kicks off the request and returns through fulfill_random\n    }\n    \n    function fulfill_random(uint256 randomness) external {\n        require(lottery_state == LOTTERY_STATE.CALCULATING_WINNER, \"You aren't at that stage yet!\");\n        require(randomness > 0, \"random-not-found\");\n        // assert(msg.sender == governance.randomness());\n        uint256 index = randomness % players.length;\n        players[index].transfer(address(this).balance);\n        players = new address payable[](0);\n        lottery_state = LOTTERY_STATE.CLOSED;\n        // You could have this run forever\n        // start_new_lottery();\n        // or with a cron job from a chainlink node would allow you to \n        // keep calling \"start_new_lottery\" as well\n    }\n\n    function get_players() public view returns (address payable[] memory) {\n        return players;\n    }\n    \n    function get_pot() public view returns(uint256){\n        return address(this).balance;\n    }\n}\n",
  "sourcePath": "/home/osboxes/BoskeDAO/BOSKE-raffle/contracts/Lottery.sol",
  "compiler": {
    "name": "solc",
    "version": "0.6.6+commit.6c089d02.Emscripten.clang"
  },
  "schemaVersion": "3.3.4",
  "updatedAt": "2021-03-29T18:54:03.432Z",
  "devdoc": {
    "methods": {}
  },
  "userdoc": {
    "methods": {}
  }
}