{
  "contractName": "RandomNumberConsumer",
  "abi": [
    {
      "inputs": [
        {
          "internalType": "address",
          "name": "_governance",
          "type": "address"
        }
      ],
      "stateMutability": "nonpayable",
      "type": "constructor"
    },
    {
      "inputs": [],
      "name": "governance",
      "outputs": [
        {
          "internalType": "contract governance_interface",
          "name": "",
          "type": "address"
        }
      ],
      "stateMutability": "view",
      "type": "function"
    },
    {
      "inputs": [],
      "name": "most_recent_random",
      "outputs": [
        {
          "internalType": "uint256",
          "name": "",
          "type": "uint256"
        }
      ],
      "stateMutability": "view",
      "type": "function"
    },
    {
      "inputs": [
        {
          "internalType": "bytes32",
          "name": "",
          "type": "bytes32"
        }
      ],
      "name": "nonces",
      "outputs": [
        {
          "internalType": "uint256",
          "name": "",
          "type": "uint256"
        }
      ],
      "stateMutability": "view",
      "type": "function"
    },
    {
      "inputs": [
        {
          "internalType": "uint256",
          "name": "",
          "type": "uint256"
        }
      ],
      "name": "randomNumber",
      "outputs": [
        {
          "internalType": "uint256",
          "name": "",
          "type": "uint256"
        }
      ],
      "stateMutability": "view",
      "type": "function"
    },
    {
      "inputs": [
        {
          "internalType": "bytes32",
          "name": "",
          "type": "bytes32"
        }
      ],
      "name": "requestIds",
      "outputs": [
        {
          "internalType": "uint256",
          "name": "",
          "type": "uint256"
        }
      ],
      "stateMutability": "view",
      "type": "function"
    },
    {
      "inputs": [
        {
          "internalType": "bytes32",
          "name": "_keyHash",
          "type": "bytes32"
        },
        {
          "internalType": "uint256",
          "name": "_fee",
          "type": "uint256"
        },
        {
          "internalType": "uint256",
          "name": "_seed",
          "type": "uint256"
        }
      ],
      "name": "requestRandomness",
      "outputs": [
        {
          "internalType": "bytes32",
          "name": "requestId",
          "type": "bytes32"
        }
      ],
      "stateMutability": "nonpayable",
      "type": "function"
    },
    {
      "inputs": [
        {
          "internalType": "uint256",
          "name": "userProvidedSeed",
          "type": "uint256"
        },
        {
          "internalType": "uint256",
          "name": "lotteryId",
          "type": "uint256"
        }
      ],
      "name": "getRandom",
      "outputs": [],
      "stateMutability": "nonpayable",
      "type": "function"
    },
    {
      "inputs": [
        {
          "internalType": "bytes32",
          "name": "requestId",
          "type": "bytes32"
        },
        {
          "internalType": "uint256",
          "name": "randomness",
          "type": "uint256"
        }
      ],
      "name": "fulfillRandomness",
      "outputs": [],
      "stateMutability": "nonpayable",
      "type": "function"
    }
  ],
  "bytecode": "0x608060405234801561001057600080fd5b50604051610b96380380610b968339818101604052602081101561003357600080fd5b810190808051906020019092919050505073b3dccb4cf7a26f6cf6b120cf5a73875b7bbc655b7301be23585060835e02b77ef475b0cc51aa1e070981600160006101000a81548173ffffffffffffffffffffffffffffffffffffffff021916908373ffffffffffffffffffffffffffffffffffffffff160217905550806000806101000a81548173ffffffffffffffffffffffffffffffffffffffff021916908373ffffffffffffffffffffffffffffffffffffffff16021790555050507f2ed0feb3e7fd2022120aa84fab1945545a9f2ffc9076fd6156fa96eaff4c131160001b60038190555067016345785d8a000060048190555080600760006101000a81548173ffffffffffffffffffffffffffffffffffffffff021916908373ffffffffffffffffffffffffffffffffffffffff16021790555050610a1b8061017b6000396000f3fe608060405234801561001057600080fd5b50600436106100885760003560e01c80639e317f121161005b5780639e317f1214610189578063c0159e5a146101cb578063dc6cfe10146101e9578063f970dd021461023f57610088565b80631f1f897f1461008d5780635aa6e675146100c5578063655b08eb1461010f5780638645f7a814610147575b600080fd5b6100c3600480360360408110156100a357600080fd5b810190808035906020019092919080359060200190929190505050610281565b005b6100cd610470565b604051808273ffffffffffffffffffffffffffffffffffffffff1673ffffffffffffffffffffffffffffffffffffffff16815260200191505060405180910390f35b6101456004803603604081101561012557600080fd5b810190808035906020019092919080359060200190929190505050610496565b005b6101736004803603602081101561015d57600080fd5b81019080803590602001909291905050506105f8565b6040518082815260200191505060405180910390f35b6101b56004803603602081101561019f57600080fd5b8101908080359060200190929190505050610610565b6040518082815260200191505060405180910390f35b6101d3610628565b6040518082815260200191505060405180910390f35b610229600480360360608110156101ff57600080fd5b8101908080359060200190929190803590602001909291908035906020019092919050505061062e565b6040518082815260200191505060405180910390f35b61026b6004803603602081101561025557600080fd5b810190808035906020019092919050505061083f565b6040518082815260200191505060405180910390f35b600160009054906101000a900473ffffffffffffffffffffffffffffffffffffffff1673ffffffffffffffffffffffffffffffffffffffff163373ffffffffffffffffffffffffffffffffffffffff1614610327576040517f08c379a00000000000000000000000000000000000000000000000000000000081526004018080602001828103825260288152602001806109936028913960400191505060405180910390fd5b80600881905550600060066000848152602001908152602001600020549050816005600083815260200190815260200160002081905550600760009054906101000a900473ffffffffffffffffffffffffffffffffffffffff1673ffffffffffffffffffffffffffffffffffffffff1663ba13a5726040518163ffffffff1660e01b815260040160206040518083038186803b1580156103c657600080fd5b505afa1580156103da573d6000803e3d6000fd5b505050506040513d60208110156103f057600080fd5b810190808051906020019092919050505073ffffffffffffffffffffffffffffffffffffffff1663c251ebf2836040518263ffffffff1660e01b815260040180828152602001915050600060405180830381600087803b15801561045357600080fd5b505af1158015610467573d6000803e3d6000fd5b50505050505050565b600760009054906101000a900473ffffffffffffffffffffffffffffffffffffffff1681565b6004546000809054906101000a900473ffffffffffffffffffffffffffffffffffffffff1673ffffffffffffffffffffffffffffffffffffffff166370a08231306040518263ffffffff1660e01b8152600401808273ffffffffffffffffffffffffffffffffffffffff1673ffffffffffffffffffffffffffffffffffffffff16815260200191505060206040518083038186803b15801561053757600080fd5b505afa15801561054b573d6000803e3d6000fd5b505050506040513d602081101561056157600080fd5b8101908080519060200190929190505050116105c8576040517f08c379a000000000000000000000000000000000000000000000000000000000815260040180806020018281038252602b8152602001806109bb602b913960400191505060405180910390fd5b60006105d96003546004548561062e565b9050816006600083815260200190815260200160002081905550505050565b60066020528060005260406000206000915090505481565b60026020528060005260406000206000915090505481565b60085481565b60008060009054906101000a900473ffffffffffffffffffffffffffffffffffffffff1673ffffffffffffffffffffffffffffffffffffffff16634000aea0600160009054906101000a900473ffffffffffffffffffffffffffffffffffffffff1685878660405160200180838152602001828152602001925050506040516020818303038152906040526040518463ffffffff1660e01b8152600401808473ffffffffffffffffffffffffffffffffffffffff1673ffffffffffffffffffffffffffffffffffffffff16815260200183815260200180602001828103825283818151815260200191508051906020019080838360005b83811015610740578082015181840152602081019050610725565b50505050905090810190601f16801561076d5780820380516001836020036101000a031916815260200191505b50945050505050602060405180830381600087803b15801561078e57600080fd5b505af11580156107a2573d6000803e3d6000fd5b505050506040513d60208110156107b857600080fd5b81019080805190602001909291905050505060006107eb858430600260008a815260200190815260200160002054610857565b9050610814600160026000888152602001908152602001600020546108d190919063ffffffff16565b60026000878152602001908152602001600020819055506108358582610959565b9150509392505050565b60056020528060005260406000206000915090505481565b600084848484604051602001808581526020018481526020018373ffffffffffffffffffffffffffffffffffffffff1673ffffffffffffffffffffffffffffffffffffffff1681526020018281526020019450505050506040516020818303038152906040528051906020012060001c9050949350505050565b60008082840190508381101561094f576040517f08c379a000000000000000000000000000000000000000000000000000000000815260040180806020018281038252601b8152602001807f536166654d6174683a206164646974696f6e206f766572666c6f77000000000081525060200191505060405180910390fd5b8091505092915050565b6000828260405160200180838152602001828152602001925050506040516020818303038152906040528051906020012090509291505056fe46756c696c6c6d656e74206f6e6c79207065726d697474656420627920436f6f7264696e61746f724e6f7420656e6f756768204c494e4b202d2066696c6c20636f6e7472616374207769746820666175636574a264697066735822122077d310e4a67b50321b73e8ce9a3fa545d40f517d637f1d24ee04ae6c666e6e0764736f6c63430006060033",
  "immutableReferences": {},
  "source": "pragma solidity 0.6.6;\n\nimport \"./vrf/VRFConsumerBase.sol\";\nimport {lottery_interface} from \"./interfaces/lottery_interface.sol\";\nimport {governance_interface} from \"./interfaces/governance_interface.sol\";\n\ncontract RandomNumberConsumer is VRFConsumerBase {\n    \n    bytes32 internal keyHash;\n    uint256 internal fee;\n    mapping (uint => uint) public randomNumber;\n    mapping (bytes32 => uint) public requestIds;\n    governance_interface public governance;\n    uint256 public most_recent_random;\n    \n    /**\n     * Constructor inherits VRFConsumerBase\n     * \n     * Network: Ropsten\n     * Chainlink VRF Coordinator address: 0xf720CF1B963e0e7bE9F58fd471EFa67e7bF00cfb\n     * LINK token address:                0x20fE562d797A42Dcb3399062AE9546cd06f63280\n     * Key Hash: 0xced103054e349b8dfb51352f0f8fa9b5d20dde3d06f9f43cb2b85bc64b238205\n     \n     Rinkeby\nItem\tValue\nLINK\t0x01be23585060835e02b77ef475b0cc51aa1e0709\nVRF Coordinator\t0xb3dCcb4Cf7a26f6cf6B120Cf5A73875B7BBc655B\nKey Hash\t0x2ed0feb3e7fd2022120aa84fab1945545a9f2ffc9076fd6156fa96eaff4c1311\nFee\t0.1 LINK\n     */\n    constructor(address _governance) \n        VRFConsumerBase(\n            0xb3dCcb4Cf7a26f6cf6B120Cf5A73875B7BBc655B, // VRF Coordinator\n            0x01BE23585060835E02B77ef475b0Cc51aA1e0709  // LINK Token\n        ) public\n    {\n        keyHash = 0x2ed0feb3e7fd2022120aa84fab1945545a9f2ffc9076fd6156fa96eaff4c1311;\n        fee = 0.1 * 10 ** 18; // 0.1 LINK\n        governance = governance_interface(_governance);\n    }\n\n    /** \n     * Requests randomness from a user-provided seed\n     */\n     \n    function getRandom(uint256 userProvidedSeed, uint256 lotteryId) public {\n        require(LINK.balanceOf(address(this)) > fee, \"Not enough LINK - fill contract with faucet\");\n        bytes32 _requestId = requestRandomness(keyHash, fee, userProvidedSeed);\n        requestIds[_requestId] = lotteryId;\n    }\n\n    /**\n     * Callback function used by VRF Coordinator\n     */\n    function fulfillRandomness(bytes32 requestId, uint256 randomness) external override {\n        require(msg.sender == vrfCoordinator, \"Fulillment only permitted by Coordinator\");\n        most_recent_random = randomness;\n        uint lotteryId = requestIds[requestId];\n        randomNumber[lotteryId] = randomness;\n        lottery_interface(governance.lottery()).fulfill_random(randomness);\n    }\n}\n\n\n",
  "sourcePath": "/home/osboxes/BoskeDAO/BOSKE-raffle/contracts/Randomness.sol",
  "compiler": {
    "name": "solc",
    "version": "0.6.6+commit.6c089d02.Emscripten.clang"
  },
  "schemaVersion": "3.3.4",
  "updatedAt": "2021-03-29T18:54:03.471Z",
  "devdoc": {
    "methods": {
      "requestRandomness(bytes32,uint256,uint256)": {
        "details": "The source of the seed data must be something which the oraclecannot anticipate. See \"SECURITY CONSIDERATIONS\" above.The fulfillRandomness method receives the output, once it's providedby the Oracle, and verified by the vrfCoordinator.The _keyHash must already be registered with the VRFCoordinator, andthe _fee must exceed the fee specified during registration of the_keyHash.The returned requestId can be used to distinguish responses to *concurrent requests. It is passed as the first argument tofulfillRandomness.",
        "params": {
          "_fee": "The amount of LINK to send with the request",
          "_keyHash": "ID of public key against which randomness is generated",
          "_seed": "Random seed from which output randomness is determined"
        },
        "returns": {
          "requestId": "which will be returned with the response to this request"
        }
      }
    }
  },
  "userdoc": {
    "methods": {
      "constructor": "Constructor inherits VRFConsumerBase      * Network: Ropsten Chainlink VRF Coordinator address: 0xf720CF1B963e0e7bE9F58fd471EFa67e7bF00cfb LINK token address:                0x20fE562d797A42Dcb3399062AE9546cd06f63280 Key Hash: 0xced103054e349b8dfb51352f0f8fa9b5d20dde3d06f9f43cb2b85bc64b238205 Rinkeby Item\tValue LINK\t0x01be23585060835e02b77ef475b0cc51aa1e0709 VRF Coordinator\t0xb3dCcb4Cf7a26f6cf6B120Cf5A73875B7BBc655B Key Hash\t0x2ed0feb3e7fd2022120aa84fab1945545a9f2ffc9076fd6156fa96eaff4c1311 Fee\t0.1 LINK",
      "fulfillRandomness(bytes32,uint256)": {
        "notice": "Callback function used by VRF Coordinator"
      },
      "getRandom(uint256,uint256)": {
        "notice": "Requests randomness from a user-provided seed"
      },
      "requestRandomness(bytes32,uint256,uint256)": {
        "notice": "requestRandomness initiates a request for VRF output given _seed"
      }
    }
  }
}